:020000000C945E
:100002002E050C9400000C9400000C9400000C943B
:1000120000000C9400000C9400000C9400000C945E
:1000220000000C9400000C9400000C9400000C944E
:1000320000000C9400000C9400000C9400000C943E
:1000420000000C9400000C9400000C9400000C942E
:1000520000000C9400000C9400000C9400000C941E
:1000620000000C9400000C9400000C9400000C940E
:1000720000000C94B4060C9400000C9400000C9444
:1000820000000C9400000C9400000000000000002E
:10009200000000000000000000000000000000005E
:1000A200000000000000000000000000000000004E
:1000B200000000000000000000000000000000003E
:1000C200000000000000000000000000000000002E
:1000D200000000000000000000000000000000001E
:1000E200000000000000000000000000000000000E
:1000F20000000000000000000000000000000000FE
:10010200000000000000000000002020282868B045
:1001120060202020282A2830202000808044322499
:100122002020002424243820202020202020242ABB
:100132001100202020242A11202030202020242ACF
:100142001120202030203028281820242221242A7F
:100152001100242221242A11202030242221242AA1
:100162001120008080403020202020202060A060CC
:10017200283020202060B060202000302860A0605D
:1001820030200004061D252420200000000000006D
:10019200000000004F000000000000070007000000
:1001A200000000147F147F14000000242A7F2A120A
:1001B2000000002313086462000000364955224003
:1001C20000000000050300000000001C22410000A6
:1001D20000000041221C000000000014083E081428
:1001E20000000008083E080800000000281800006F
:1001F200000000080808080808000030300000006D
:1002020000000020100804020000003E5149453E53
:1002120000000000427F4000000000426151494658
:100222000000002141454B310000001814127F10DC
:1002320000000000274545453900003C4A49493045
:1002420000000001710905030000003649494936E2
:10025200000000064949291E000000003636000051
:100262000000000056360000000000081422410081
:100272000000002424242424000000004122140849
:100282000000000201510906000000324979413E96
:100292000000007E1111117E0000007F494949369D
:1002A2000000003E414141220000007F4141221CEA
:1002B2000000007F494949410000007F0909090106
:1002C2000000003E4149493A0000007F0808087FCB
:1002D20000000000417F41000000002040413F013A
:1002E2000000007F081422410000007F404040408F
:1002F2000000007F020C027F0000007F0408107FD4
:100302000000003E4141413E0000007F090909060C
:1003120000003E4151215E000000007F091929467C
:10032200000000464949493100000001017F0101F6
:100332000000003F4040403F0000001F2040201FBF
:100342000000003F4060403F000000631408146357
:10035200000000070870080700000061514945438A
:100362000000007F4141000000000015167C1615B8
:1003720000000041417F000000000004020102046D
:100382000000004040404040000000010204000024
:1003920000000020545454780000007F4444443844
:1003A2000000003844444400000000384444487FC0
:1003B2000000003854545418000000107E1101024D
:1003C2000000000C5252523E0000007F08040478E4
:1003D20000000000447D40000000002040403D003D
:1003E2000000007F1028440000000000417F400010
:1003F2000000007C041804780000007C08040478E3
:1004020000000038444444380000007C14141408EE
:10041200000000081414187C0000007C0804040882
:100422000000004854545420000000043F4440207F
:100432000000003C4040207C0000001C2040201CAA
:100442000000001E2010201E0000002214081422AA
:10045200000000064848483E0000004464544C44F2
:10046200000000083641000000000000007F00008C
:10047200000000413608000000000008082A1C089D
:10048200000000081C2A08080000003C4241423CCF
:10049200000000302860A060283020202020A0200A
:1004A200283020202020B020202000302820A0202A
:1004B20030202020202220222830202020223022FA
:1004C2002020003028222022302020202022212219
:1004D20028302020202231222020003028222122F0
:1004E20030202020282828B020202020282828302A
:1004F200202000C0A82868B060200000808044321C
:100502000400002425243820202030242221242AFB
:100512001100008080403420202020202038203804
:100522002018202038203820382060808078203819
:10053200201820202038223922182020382239225F
:100542003820608080782239221830202020242A06
:100552001100203020302828382060808060302828
:1005620028382020302030282A1820302030282A0D
:1005720038206080806030282A3820203E302828A9
:10058200382020203E30282A3820202020203028E1
:10059200280020202030282820200040A0B0282831
:1005A20020202020202030282A0020202030282A25
:1005B20020200040A0B0282A2020202020203028FF
:1005C2002A30202030282A302020001820203028ED
:1005D2002A3020202020302A28322020302A283297
:1005E2002020608080B2A87A20202225252525257A
:1005F20025192020201C2221202030282C2A203FAF
:1006020020202020202020201F00202020201F200A
:100612002020003040403F20202020202020304851
:100622004830202030484830202080403048483030
:1006320020202020202022201800202020201A20E4
:100642002020304044403020202020202030283AF2
:100652002C18202030283A2C382000181414182086
:1006620020200021222428100F0000B0A87820208A
:100672002020202020A020A02830202020A030A050
:10068200202000608080A0501020001E202020200A
:1006920020200020302828200000000402023A0214
:1006A2000201000004063D050400000004B6AD7D11
:1006B2000400000080C0BFA0800004668595A8A841
:1006C20048000000003F0000000000302820A02069
:1006D20028300000302A2832000000302822202250
:1006E2002830003028222122283000C0A8A828B0B3
:1006F200202000C0A8A8A830202000C0A8AA283026
:10070200202000002424243800000000242524385E
:1007120000000080804030000000000080804034F3
:10072200000060808078203820186080807822392C
:10073200221860808060302828186080806030280D
:100742002A18002214081422000020203E302828F3
:10075200180020203E30282A1800000040A0B028AF
:100762002800000040A0B02A2800202020202020BD
:1007720020200018202030282A3000608080B2A873
:100782007A000030282C2A203F000040A9AAA8F0B5
:10079200000000006080807E00000040AAA9AAF04C
:1007A20000000000C02030282830000060808880CF
:1007B20060000000302828300000000000B0A87857
:1007C20000000426252528100F00042222262910C5
:1007D2000F0000212224A8D0AFA00070AAA9AA303D
:1007E20000000070AAA8AA30000000304040502843
:1007F20008000030C040D028080000000279020042
:100802000000000002780200000000000000000565
:10081200050500000004030B0606A0A0A0000000CE
:100822000000000001010101000000212224281023
:100832002F2000000000000403030000808080805D
:100842000000000010105410100000000204020406
:100852000200202426252520283020242625352084
:100862002020086C8A8AA050102004B6AD7D242076
:10087200202000191415182020200402021A222216
:1008820021200040605048504040C1C1C1C1000019
:10089200C2C2FEFE0100C3C31F1F0100C4C4FCFC90
:1008A2000100C5C5C5C50101C6BDBFBE0101C7C79F
:1008B200C0C00100C88284830101C9C9FDFD0100D5
:1008C200CA8587860101CB888A890101CC8BCC8BB2
:1008D2000101CD8CCD8C0101CE11CE110101CFCF02
:1008E20013130100D0D08F8F0100D1D11B1B010047
:1008F200D2D291910100D39294930101D49597960B
:100902000101D5179A990101D69B9D9C0101D7D768
:10091200D7D70000D8D89E9E0101D9D99F9F010147
:10092200DAA0A2A10101DBA3A5A40101DCDCDCDCCD
:100932000000DDA6A8A70101DEA9ABAA0101DFAC78
:10094200AEAD0101E0E0E0E00000E1AFB1B00101D5
:10095200E2E2E2E20000E3B2B4B30101E4B5B7B609
:100962000101E5B8BAB90101E6E6BCBC0100E7E75E
:10097200E7E70000E8E8E8E80000E9E9E9E9000063
:10098200EAEAEAEA0000EBEBEBEB0000ECBDBFBEEB
:100992000101EDBDBFBE0101EEEEEEEE0000EFEF94
:1009A200EFEF0000F0F0F0F00000F1F1F1F10000E3
:1009B200F2F2F2F20000F3F3F3F30000F5F5F5F5CD
:1009C2000000F6F6F6F60000F7F7F7F70000F8F881
:1009D200F8F80000FBF9FBFA0101BBBBF4F40100DB
:1009E200811C1E1D010190181A1901019814161577
:1009F20001018E8E121201008D108D10010110273F
:100A0200E80364000A000100001000011000010068
:100A1200C10000003943000007430000A04000006D
:100A2200000000000000000001002D4E414E004970
:100A32004E46000001000005120A04001905140ABE
:100A420004001D05180A040021051C0A0A000400FE
:100A5200200A01002D052A0A0000F894EE27ECBBBB
:100A6200F1E0F5BFE5BFE0936C00F8E1F1BDE1BD57
:100A72008DE0A2E0BB27ED938A95E9F780E090E153
:100A8200A0E0B1E0ED930197E9F7E6E3FAE08591A2
:100A92009591009761F0A591B59105901590BF01D0
:100AA200F00105900D920197E1F7FB01F0CF8BBFAA
:100AB200EFEFEDBFE0E1EEBFC0E0D5E00C948B07B5
:100AC200E0E0EBBBE7E3EABBE0E0E8BBE1E2E7BB87
:100AD200BE9ABA9AC29AE0E0E5BBEFEFE4BBE0E06F
:100AE200E2BBE8E0E1BBEFE0E3B9E0E0E2B9E093CA
:100AF2006200E0936100E0936500E0936400E2E845
:100B0200EFBDE8E1EEBDE0E0EDBDECBDE3E0E7BD49
:100B1200EFEFE6BDE1E0EBBDEFEFEABDE0E0E9BDFE
:100B2200E8BDE0937900E0937800E0938B00E9E080
:100B3200E0938A00E0E0E0938900E0938800E0938C
:100B42008100E0938000EFEFE0938700E09386005E
:100B5200E0E0E0938500E0938400E0938300E0937B
:100B62008200E0936A00EABFE9BFE8BFE7BFE4E0C2
:100B7200E0937D00E0E0EBB9E8E1EAB9E6E0E0937A
:100B82009500E0E0E0939000E3E3E9B9E0E0E09370
:100B92009B00E8E1E0939A00E6E0E0939D00E0E04C
:100BA200E0939800E3E3E0939900E0E8E8B9E0E03D
:100BB200E0BDE7B9E1E8E6B9E0E0EDB9E093740041
:100BC200C2C0E881E7B98BE18A95F1F7369A349B86
:100BD200FECF349AE4B1F5B121960895A89AAA9865
:100BE2000895A898AA9A0895E3E0EA93EADFA5E1B6
:100BF200B5E00E94B6070E941A0A0E94BB070E9433
:100C0200C4077F936F93FF93EF930E94CB070E94D9
:100C1200D407AF91BF918F919F910E94DF070E94ED
:100C2200E5077F936F93FF93EF930E94FC07AF91C9
:100C3200BF918F919F910E94A309E0932905F093A0
:100C42002A0560932B0570932C050E94FE070E94D3
:100C5200BB070E94E80909F010F40C9433060E94C5
:100C6200FE0709C00E9407080E94BB070E94E8090C
:100C720050F40E940708E0931505F093160560935F
:100C82001705709318050E9407080E949208F7BD85
:100C9200E6BD0E941008E9E1EEBDC09A0E94070875
:100CA2000E9494084F010E941E080E94270898F48F
:100CB20097BC86BC0E941008E0912905F0912A0594
:100CC20060912B0570912C050E942F08F40131963A
:100CD2004F013197E8CF08950E9435080E94E50739
:100CE2007F936F93FF93EF930E94FC07AF91BF91A5
:100CF2008F919F910E94A309E0932505F093260509
:100D020060932705709328050E941E080E9494088C
:100D12004F010E9407080E94270809F010F40C9462
:100D2200A40697BC86BC0E941008E0912505F091AC
:100D3200260560912705709128050E942F08F4016D
:100D420031974F01E6CFC098E8E1EEBD08950C99C6
:100D520004C00D9902C00E9B04C05524E1E07E2E12
:100D620001C0772408950A921A92FA926A937A93AA
:100D72008A939A93AA93BA93EA93FA93EFB7EA9370
:100D8200E0E0879BE1E0F0E0F068DF01F501EE0FC3
:100D9200FF1FEA2BFB2B5F01E0E0F0ECEA15FB05FD
:100DA20049F4E51521F4E71511F4E61509F002C03E
:100DB200E1E05E2EE0E0869BE1E0F0E0F068DF013A
:100DC200F601EE0FFF1FEA2BFB2B6F01E0E0F0ECC8
:100DD200EC15FD0521F4E1E0E51509F45524E3E005
:100DE200EA93EFDEA5E0B5E00E94B6070E941A0A78
:100DF2000E943E080E94C4077F936F93FF93EF9374
:100E02000E94FC07AF91BF918F919F910E94DF07D3
:100E12000E9447080E9450080E9435080E94FE085E
:100E2200ADECBCEC8CEC9DE30E9455090E9450088D
:100E32000E9405090E9447080E943508E0930905AF
:100E4200F0930A0560930B0570930C050E943E080F
:100E5200E0E0F0E06CE073E40E94E80918F4E1E0FD
:100E6200E51509F004C05524E1E06E2E45C00E944C
:100E72003E08E0E0F0E061E173E40E94E80909F075
:100E820010F40C944707E1E0E61509F003C0E1E035
:100E92005E2E6624E0E0F0E068E472E4E09311057F
:100EA200F093120560931305709314050E943508A0
:100EB200A0911105B091120580911305909114052E
:100EC2000E945509DF01CB01E0E0F0E068EC72E43A
:100ED2000E94A309E0930D05F0930E0560930F05A0
:100EE200709310050E949208FBBDEABD0E9435086E
:100EF2000E949208F7BDE6BDE991EFBFF991E99131
:100F0200B991A9919991899179916991F9901990E1
:100F120009901895D5DD65DEE4E6F0E0FA93EA93F0
:100F22000E945908789413DF5414E9F0E1E0E515C2
:100F320029F4E0E0E71511F4E61509F009C0E0E054
:100F4200E0937D0051DEE4E0E0937D0047DE0AC0DD
:100F5200552049F4E0E0E0937D00BEDEE4E0E0935A
:100F62007D003FDE452CDFCFFFCF662777270E942B
:100F7200CB080895A0911505B0911605809117052B
:100F8200909118050895E0E0F0E060E874E40E94B2
:100F9200A3090895A0911D05B0911E0580911F051A
:100FA200909120050895E0911905F0911A0560913C
:100FB2001B0570911C050E94FE0808950E945509A8
:100FC200E9DF0E9405090895E0931505F0931605DF
:100FD2006093170570931805A0912105B091220521
:100FE2008091230590912405E0E0F0E068EC72E442
:100FF2000E9455090895CEDFD6CFE0911905F091F0
:101002001A0560911B0570911C050895E0911D055C
:10101200F0911E0560911F05709120050895E6B5B7
:10102200F7B5A3DFA0E0B0E080E09FE30E9455099E
:101032000E949208FBBDEABD0895E0911505F0916A
:10104200160560911705709118050895D4010E9444
:10105200150A0E94210A0E94E80908950E94920836
:10106200FA93EA930C945908E0910505F09106056C
:1010720060910705709108050895A0910505B0914A
:10108200060580910705909108050895E0930505EE
:10109200F093060560930705709308050895A091E3
:1010A2000905B0910A0580910B0590910C050895F0
:1010B200E991F991309639F080ED97E00197F1F7D7
:1010C200A8953197C9F70895552342F4503811F481
:1010D200E0FF04C03196691F791F6BF050E8572773
:1010E20011F45F93CFC05F3F31F0660F000C57954C
:1010F2006795752F08955F9300200AF0CFC0C8C08E
:1011020050E8192E1522880F991F9527550F87959C
:1011120050E8072E0522660F771F7527550F679532
:101122000895689401C0E8945F93F2DF703818F074
:101132007F3F08F4A7C056E1571BAAF451955830D7
:101142000EF4593030F0EFEFFFEF6FEF7FE777F9F2
:101152001AC077275523B9F0EE0FFF1F661F771FBE
:101162005A95D1F710C07727583028F0EF2FF62F75
:10117200672F5850F9CF552331F076956795F7953B
:10118200E7955A95D1F700200AF441D15F9108956D
:10119200689401C0E894309760407040B1F0002438
:1011A20026F0772312F4009432D1172E7EE111201B
:1011B20032F07A95EE0FFF1F661F111CF9CFEF2F49
:1011C200F62F612D5F938ADF5F9108954F93AF01F0
:1011D200FD01DA01AB01BC01CA01402D012C142E24
:1011E2004F910895EA0FFB1F681F0895E095F0954F
:1011F2006095EF5FFF4F6F4F08955F9381DF9038E7
:1012020071F150E8152604C05F937ADF903839F106
:10121200703821F1572F591B2BF112F4D7DFFACF77
:10122200583118F0AA27BB278827583028F0AB2F4F
:10123200B82F88275850F9CF552329F08695B795AE
:10124200A7955A95D9F7502D512572F0CBDF38F476
:101252006795F795E795739513F420C0B7DF3EDFE6
:101262005F910895D8F7FBCFEA1BFB0B680B51F097
:1012720010F40094BBDF662392F3EE0FFF1F661F8C
:101282007A95CBF7EE27FF27662777275F91089598
:10129200EFEFFFEF6FE77FEF5F910895EFEFFFEF63
:1012A2006FE77FE75F9108955F932ADF703851F30C
:1012B200903841F301240894791F23F41CF3002091
:1012C2003AF3ECCF0F921F932F933F934F93112733
:1012D20022279927689FA0018F9F302D410D591F0A
:1012E2006B9F300D411D591F8E9F27D0BF9F25D068
:1012F2006A9F23D0BE9F1DD0AF9F1BD0AE9F110D02
:10130200291F391F491F591FE32FF42F652F522F11
:101312004F913F912F911F910F9066232AF0550F05
:10132200EE1FFF1F661F02C073954BF2CDDE5F9169
:101332000895100D211D391F02C0200D311D491FB6
:10134200591F08955F93DCDE703821F411200AF4EE
:101352009FCFA4CF903809F495CF01240894970B1E
:101362001BF4D4F30020F3CF792F1F932F933F93D5
:101372004F9311241127222733274427552790E220
:10138200AE17BF078607410730F0AE1BBF0B860BB7
:10139200410B089401C08894551F221F331F111C52
:1013A200AA1FBB1F881F441F9A9551F7F901612D8F
:1013B2004F913F912F911F91662332F0550FEE1FEF
:1013C200FF1F661F7A9543F27FDE5F91089599238E
:1013D2009AF0772342F0971748F029F4AE17BF0727
:1013E200860720F031F09894889408959894089490
:1013F20008951894889408957723C2F7971798F35D
:10140200A9F7EA17FB07680788F399F3ECCFF09581
:1014120060957095E195FF4F6F4F7F4F08956F2F45
:10142200660F660B762F08958B2F880F880B982FE7
:101432000895ED93FD936D937C930895689401C094
:10144200E89401D0A8DE182E862F612D192E972F31
:10145200712D1B2EBF2FF12D1A2EAE2FE12D0895C7
:00000001FF
